{
  "address": "0xe7f1725E7734CE288F8367e1Bb143E90bb3F0512",
  "abi": [
    {
      "inputs": [
        {
          "internalType": "contract StarToken",
          "name": "_token",
          "type": "address"
        }
      ],
      "stateMutability": "nonpayable",
      "type": "constructor"
    },
    {
      "anonymous": false,
      "inputs": [
        {
          "indexed": false,
          "internalType": "uint256",
          "name": "weiObjective",
          "type": "uint256"
        },
        {
          "indexed": false,
          "internalType": "uint256",
          "name": "weiMinObjective",
          "type": "uint256"
        },
        {
          "indexed": false,
          "internalType": "contract StarToken",
          "name": "token",
          "type": "address"
        },
        {
          "indexed": false,
          "internalType": "address payable",
          "name": "beneficiary",
          "type": "address"
        },
        {
          "indexed": false,
          "internalType": "uint256",
          "name": "weiTokenPrice",
          "type": "uint256"
        },
        {
          "indexed": false,
          "internalType": "address payable",
          "name": "devTeamWallet",
          "type": "address"
        }
      ],
      "name": "CrowdfundingDeployed",
      "type": "event"
    },
    {
      "anonymous": false,
      "inputs": [
        {
          "indexed": true,
          "internalType": "address",
          "name": "previousOwner",
          "type": "address"
        },
        {
          "indexed": true,
          "internalType": "address",
          "name": "newOwner",
          "type": "address"
        }
      ],
      "name": "OwnershipTransferred",
      "type": "event"
    },
    {
      "inputs": [
        {
          "internalType": "uint256",
          "name": "weiObjective",
          "type": "uint256"
        },
        {
          "internalType": "uint256",
          "name": "weiMinObjective",
          "type": "uint256"
        },
        {
          "internalType": "address payable",
          "name": "beneficiary",
          "type": "address"
        },
        {
          "internalType": "uint256",
          "name": "weiTokenPrice",
          "type": "uint256"
        },
        {
          "internalType": "address payable",
          "name": "devTeamWallet",
          "type": "address"
        }
      ],
      "name": "deployNewCrowdfunding",
      "outputs": [],
      "stateMutability": "nonpayable",
      "type": "function"
    },
    {
      "inputs": [
        {
          "internalType": "address",
          "name": "",
          "type": "address"
        },
        {
          "internalType": "uint256",
          "name": "",
          "type": "uint256"
        }
      ],
      "name": "instances",
      "outputs": [
        {
          "internalType": "address",
          "name": "",
          "type": "address"
        }
      ],
      "stateMutability": "view",
      "type": "function"
    },
    {
      "inputs": [],
      "name": "owner",
      "outputs": [
        {
          "internalType": "address",
          "name": "",
          "type": "address"
        }
      ],
      "stateMutability": "view",
      "type": "function"
    },
    {
      "inputs": [],
      "name": "renounceOwnership",
      "outputs": [],
      "stateMutability": "nonpayable",
      "type": "function"
    },
    {
      "inputs": [
        {
          "internalType": "address",
          "name": "newOwner",
          "type": "address"
        }
      ],
      "name": "transferOwnership",
      "outputs": [],
      "stateMutability": "nonpayable",
      "type": "function"
    }
  ],
  "transactionHash": "0xb9ab77ce6b7abc5b5901b9677dc80884b792ee37f4525b5df316332e9305bbe4",
  "args": [
    "0x5FbDB2315678afecb367f032d93F642f64180aa3"
  ],
  "solcInputHash": "814dbd40af2d5ffdb74edff265b7cd76",
  "bytecode": "0x60a060405234801561001057600080fd5b5060405161221338038061221383398101604081905261002f916100ac565b61003f61003a610058565b61005c565b6001805560601b6001600160601b0319166080526100da565b3390565b600080546001600160a01b038381166001600160a01b0319831681178455604051919092169283917f8be0079c531659141344cd1fd0a4f28419497f9722a3daafe3b4186f6b6457e09190a35050565b6000602082840312156100bd578081fd5b81516001600160a01b03811681146100d3578182fd5b9392505050565b60805160601c6121146100ff60003960008181610161015261023301526121146000f3fe60806040523480156200001157600080fd5b50600436106200005e5760003560e01c806327f8331d14620000635780634a927eb2146200007c578063715018a614620000ab5780638da5cb5b14620000b5578063f2fde38b14620000bf575b600080fd5b6200007a62000074366004620005fb565b620000d6565b005b620000936200008d366004620005ac565b62000273565b604051620000a2919062000655565b60405180910390f35b6200007a620002ac565b6200009362000300565b6200007a620000d036600462000586565b6200030f565b620000e06200038c565b6001600160a01b0316620000f362000300565b6001600160a01b031614620001255760405162461bcd60e51b81526004016200011c90620006af565b60405180910390fd5b600260015414156200014b5760405162461bcd60e51b81526004016200011c906200071b565b60026001556200015b8362000390565b600085857f0000000000000000000000000000000000000000000000000000000000000000868686604051620001919062000578565b620001a29695949392919062000752565b604051809103906000f080158015620001bf573d6000803e3d6000fd5b506001600160a01b0385811660009081526002602090815260408083208054600181018255908452919092200180546001600160a01b03191692841692909217909155519091507ff2d23ee9407b8e749e2b2cdfbaa109af1bcc21f31c517ba007adefa7cea56032906200025f90889088907f00000000000000000000000000000000000000000000000000000000000000009089908990899062000752565b60405180910390a150506001805550505050565b600260205281600052604060002081815481106200029057600080fd5b6000918252602090912001546001600160a01b03169150829050565b620002b66200038c565b6001600160a01b0316620002c962000300565b6001600160a01b031614620002f25760405162461bcd60e51b81526004016200011c90620006af565b620002fe600062000528565b565b6000546001600160a01b031690565b620003196200038c565b6001600160a01b03166200032c62000300565b6001600160a01b031614620003555760405162461bcd60e51b81526004016200011c90620006af565b6001600160a01b0381166200037e5760405162461bcd60e51b81526004016200011c9062000669565b620003898162000528565b50565b3390565b6001600160a01b038116600090815260026020908152604080832080548251818502810185019093528083529192909190830182828015620003fc57602002820191906000526020600020905b81546001600160a01b03168152600190910190602001808311620003dd575b5050505050905060008151111562000524576000816001835162000421919062000786565b815181106200044057634e487b7160e01b600052603260045260246000fd5b60200260200101519050600060028111156200046c57634e487b7160e01b600052602160045260246000fd5b816001600160a01b031663200d2ed26040518163ffffffff1660e01b815260040160206040518083038186803b158015620004a657600080fd5b505afa158015620004bb573d6000803e3d6000fd5b505050506040513d601f19601f82011682018060405250810190620004e19190620005da565b60028111156200050157634e487b7160e01b600052602160045260246000fd5b1415620005225760405162461bcd60e51b81526004016200011c90620006e4565b505b5050565b600080546001600160a01b038381166001600160a01b0319831681178455604051919092169283917f8be0079c531659141344cd1fd0a4f28419497f9722a3daafe3b4186f6b6457e09190a35050565b61191e80620007c183390190565b60006020828403121562000598578081fd5b8135620005a581620007aa565b9392505050565b60008060408385031215620005bf578081fd5b8235620005cc81620007aa565b946020939093013593505050565b600060208284031215620005ec578081fd5b815160038110620005a5578182fd5b600080600080600060a0868803121562000613578081fd5b853594506020860135935060408601356200062e81620007aa565b92506060860135915060808601356200064781620007aa565b809150509295509295909350565b6001600160a01b0391909116815260200190565b60208082526026908201527f4f776e61626c653a206e6577206f776e657220697320746865207a65726f206160408201526564647265737360d01b606082015260800190565b6020808252818101527f4f776e61626c653a2063616c6c6572206973206e6f7420746865206f776e6572604082015260600190565b6020808252601d908201527f416c726561647920696e2070726f677265737320696e7374616e63652e000000604082015260600190565b6020808252601f908201527f5265656e7472616e637947756172643a207265656e7472616e742063616c6c00604082015260600190565b95865260208601949094526001600160a01b039283166040860152908216606085015260808401521660a082015260c00190565b600082821015620007a557634e487b7160e01b81526011600452602481fd5b500390565b6001600160a01b03811681146200038957600080fdfe6101406040523480156200001257600080fd5b506040516200191e3803806200191e8339810160408190526200003591620001a0565b6001805585620000625760405162461bcd60e51b815260040162000059906200020f565b60405180910390fd5b60008211620000855760405162461bcd60e51b8152600401620000599062000246565b62000092600033620000d9565b6001600160601b0319606094851b811660805292841b83166101005260c09590955260e0939093526004805460ff1916905560a0929092529190911b166101205262000296565b620000e58282620000e9565b5050565b620000f5828262000173565b620000e5576000828152602081815260408083206001600160a01b03851684529091529020805460ff191660011790556200012f6200019c565b6001600160a01b0316816001600160a01b0316837f2f8788117e7eff1d82e926ec794901d17c78024a50270940304540a733656f0d60405160405180910390a45050565b6000918252602082815260408084206001600160a01b0393909316845291905290205460ff1690565b3390565b60008060008060008060c08789031215620001b9578182fd5b86519550602087015194506040870151620001d4816200027d565b6060880151909450620001e7816200027d565b608088015160a0890151919450925062000201816200027d565b809150509295509295509295565b6020808252601f908201527f4f626a6563746976652073686f756c64206265206120706f7369746976652e00604082015260600190565b6020808252601f908201527f546f6b656e2070726963652073686f756c6420626520706f7369746976652e00604082015260600190565b6001600160a01b03811681146200029357600080fd5b50565b60805160601c60a05160c05160e0516101005160601c6101205160601c6115f06200032e6000396000818161036901528181610fca0152611028015260008181610423015281816104e40152818161050c0152610cf6015260008181610a180152610c850152600081816106e301526109df015260008181610a3c0152610d8c0152600081816107f10152610f9d01526115f06000f3fe60806040526004361061011f5760003560e01c8063590e1ae3116100a0578063cdf32cab11610064578063cdf32cab146102d5578063d547741f146102ea578063e8b5e51f1461030a578063ea8d0f9a14610312578063ee56cf41146103275761011f565b8063590e1ae31461026157806376b8948d1461027657806391d148541461028b578063a217fddf146102ab578063b88a802f146102c05761011f565b806336568abe116100e757806336568abe146101ed57806338af3eed1461020d5780633ccfd60b146102225780633df55efd146102375780634bb278f31461024c5761011f565b806301ffc9a7146101245780631a607ebe1461015a578063200d2ed21461017c578063248a9ca31461019e5780632f2ff15d146101cb575b600080fd5b34801561013057600080fd5b5061014461013f3660046110dc565b61033c565b60405161015191906111a9565b60405180910390f35b34801561016657600080fd5b5061016f610367565b604051610151919061117c565b34801561018857600080fd5b5061019161038b565b60405161015191906111bd565b3480156101aa57600080fd5b506101be6101b936600461108a565b610394565b60405161015191906111b4565b3480156101d757600080fd5b506101eb6101e63660046110a2565b6103a9565b005b3480156101f957600080fd5b506101eb6102083660046110a2565b6103d2565b34801561021957600080fd5b5061016f610421565b34801561022e57600080fd5b506101eb610445565b34801561024357600080fd5b506101be610578565b34801561025857600080fd5b506101eb61059c565b34801561026d57600080fd5b506101eb6105d4565b34801561028257600080fd5b506101be6106e1565b34801561029757600080fd5b506101446102a63660046110a2565b610705565b3480156102b757600080fd5b506101be61072e565b3480156102cc57600080fd5b506101eb610733565b3480156102e157600080fd5b506101be6108a4565b3480156102f657600080fd5b506101eb6103053660046110a2565b6108aa565b6101eb6108c9565b34801561031e57600080fd5b506101be610a16565b34801561033357600080fd5b506101be610a3a565b60006001600160e01b03198216637965db0b60e01b1480610361575061036182610a5e565b92915050565b7f000000000000000000000000000000000000000000000000000000000000000081565b60045460ff1681565b60009081526020819052604090206001015490565b6103b282610394565b6103c3816103be610a77565b610a7b565b6103cd8383610adf565b505050565b6103da610a77565b6001600160a01b0316816001600160a01b0316146104135760405162461bcd60e51b815260040161040a906114a0565b60405180910390fd5b61041d8282610b64565b5050565b7f000000000000000000000000000000000000000000000000000000000000000081565b600260015414156104685760405162461bcd60e51b815260040161040a90611432565b6002600190815560045460ff16600281111561049457634e487b7160e01b600052602160045260246000fd5b146104b15760405162461bcd60e51b815260040161040a906113d9565b6000600254116104d35760405162461bcd60e51b815260040161040a90611406565b60025461050a906001600160a01b037f00000000000000000000000000000000000000000000000000000000000000001690610be7565b7f00000000000000000000000000000000000000000000000000000000000000006001600160a01b03167fca2b4d68e42b50bb8686d4e808d2fb68c569d9b8f497cc8784d7fe315d889e8760025460405161056591906111b4565b60405180910390a2600060025560018055565b7f53ea8c2084bd069d8c2df22bdca7223415cd9c0b605c29d1a0d06f15fcd3eed481565b7f53ea8c2084bd069d8c2df22bdca7223415cd9c0b605c29d1a0d06f15fcd3eed46105c9816103be610a77565b6105d1610c83565b50565b600260015414156105f75760405162461bcd60e51b815260040161040a90611432565b6002600181905560045460ff16600281111561062357634e487b7160e01b600052602160045260246000fd5b146106405760405162461bcd60e51b815260040161040a9061124d565b336000818152600360205260409020548061066d5760405162461bcd60e51b815260040161040a90611278565b806002600082825461067f9190611546565b9091555061069890506001600160a01b03831682610be7565b816001600160a01b03167f36223d67e276b82c1b7ba6855d656a2b8071564264666ef7977022c5d8a64402826040516106d191906111b4565b60405180910390a2505060018055565b7f000000000000000000000000000000000000000000000000000000000000000081565b6000918252602082815260408084206001600160a01b0393909316845291905290205460ff1690565b600081565b600260015414156107565760405162461bcd60e51b815260040161040a90611432565b6002600190815560045460ff16600281111561078257634e487b7160e01b600052602160045260246000fd5b1461079f5760405162461bcd60e51b815260040161040a9061137a565b33600081815260036020526040902054806107cc5760405162461bcd60e51b815260040161040a906113a9565b60006107d782610d85565b6040516340c10f1960e01b81529091506001600160a01b037f000000000000000000000000000000000000000000000000000000000000000016906340c10f19906108289086908590600401611190565b600060405180830381600087803b15801561084257600080fd5b505af1158015610856573d6000803e3d6000fd5b50505050826001600160a01b03167f118b25248647f9ba8639886715e9714cb314e44a7bf767ebf60db679ec9827a88260405161089391906111b4565b60405180910390a250506001805550565b60025481565b6108b382610394565b6108bf816103be610a77565b6103cd8383610b64565b600260015414156108ec5760405162461bcd60e51b815260040161040a90611432565b6002600155600060045460ff16600281111561091857634e487b7160e01b600052602160045260246000fd5b146109355760405162461bcd60e51b815260040161040a90611343565b3334806109545760405162461bcd60e51b815260040161040a90611469565b6001600160a01b0382166000908152600360205260408120805483929061097c9084906114ef565b92505081905550806002600082825461099591906114ef565b92505081905550816001600160a01b03167fc3f75dfc78f6efac88ad5abb5e606276b903647d97b2a62a1ef89840a658bbc3826040516109d591906111b4565b60405180910390a27f000000000000000000000000000000000000000000000000000000000000000060025410610a0e57610a0e610c83565b505060018055565b7f000000000000000000000000000000000000000000000000000000000000000081565b7f000000000000000000000000000000000000000000000000000000000000000081565b6001600160e01b031981166301ffc9a760e01b14919050565b3390565b610a858282610705565b61041d57610a9d816001600160a01b03166014610db1565b610aa8836020610db1565b604051602001610ab9929190611107565b60408051601f198184030181529082905262461bcd60e51b825261040a916004016111e5565b610ae98282610705565b61041d576000828152602081815260408083206001600160a01b03851684529091529020805460ff19166001179055610b20610a77565b6001600160a01b0316816001600160a01b0316837f2f8788117e7eff1d82e926ec794901d17c78024a50270940304540a733656f0d60405160405180910390a45050565b610b6e8282610705565b1561041d576000828152602081815260408083206001600160a01b03851684529091529020805460ff19169055610ba3610a77565b6001600160a01b0316816001600160a01b0316837ff6391f5c32d9c69d2a47ea670b442974b53935d1edc7fd64eb21e047a839171b60405160405180910390a45050565b80471015610c075760405162461bcd60e51b815260040161040a9061130c565b6000826001600160a01b031682604051610c2090611104565b60006040518083038185875af1925050503d8060008114610c5d576040519150601f19603f3d011682016040523d82523d6000602084013e610c62565b606091505b50509050806103cd5760405162461bcd60e51b815260040161040a906112af565b7f00000000000000000000000000000000000000000000000000000000000000006002541015610cb4576002610cb7565b60015b6004805460ff19166001836002811115610ce157634e487b7160e01b600052602160045260246000fd5b02179055506004546040516001600160a01b037f000000000000000000000000000000000000000000000000000000000000000016917f251a913b9509d81d7c0bf1032d3cbfc794041c71edc3d8e6ef416f45eb847e0591610d469160ff16906111bd565b60405180910390a2600160045460ff166002811115610d7557634e487b7160e01b600052602160045260246000fd5b1415610d8357610d83610f6a565b565b60006103617f000000000000000000000000000000000000000000000000000000000000000083611507565b60606000610dc0836002611527565b610dcb9060026114ef565b67ffffffffffffffff811115610df157634e487b7160e01b600052604160045260246000fd5b6040519080825280601f01601f191660200182016040528015610e1b576020820181803683370190505b509050600360fc1b81600081518110610e4457634e487b7160e01b600052603260045260246000fd5b60200101906001600160f81b031916908160001a905350600f60fb1b81600181518110610e8157634e487b7160e01b600052603260045260246000fd5b60200101906001600160f81b031916908160001a9053506000610ea5846002611527565b610eb09060016114ef565b90505b6001811115610f44576f181899199a1a9b1b9c1cb0b131b232b360811b85600f1660108110610ef257634e487b7160e01b600052603260045260246000fd5b1a60f81b828281518110610f1657634e487b7160e01b600052603260045260246000fd5b60200101906001600160f81b031916908160001a90535060049490941c93610f3d8161158d565b9050610eb3565b508315610f635760405162461bcd60e51b815260040161040a90611218565b9392505050565b60006014610f79600254610d85565b610f839190611507565b6040516340c10f1960e01b81529091506001600160a01b037f000000000000000000000000000000000000000000000000000000000000000016906340c10f1990610ff4907f0000000000000000000000000000000000000000000000000000000000000000908590600401611190565b600060405180830381600087803b15801561100e57600080fd5b505af1158015611022573d6000803e3d6000fd5b505050507f00000000000000000000000000000000000000000000000000000000000000006001600160a01b03167f740c3e1985f075c79de5f105c7fc16384c57c765812ec03c021f4c5d4231880f8260405161107f91906111b4565b60405180910390a250565b60006020828403121561109b578081fd5b5035919050565b600080604083850312156110b4578081fd5b8235915060208301356001600160a01b03811681146110d1578182fd5b809150509250929050565b6000602082840312156110ed578081fd5b81356001600160e01b031981168114610f63578182fd5b90565b60007f416363657373436f6e74726f6c3a206163636f756e74200000000000000000008252835161113f81601785016020880161155d565b7001034b99036b4b9b9b4b733903937b6329607d1b601791840191820152835161117081602884016020880161155d565b01602801949350505050565b6001600160a01b0391909116815260200190565b6001600160a01b03929092168252602082015260400190565b901515815260200190565b90815260200190565b60208101600383106111df57634e487b7160e01b600052602160045260246000fd5b91905290565b600060208252825180602084015261120481604085016020870161155d565b601f01601f19169190910160400192915050565b6020808252818101527f537472696e67733a20686578206c656e67746820696e73756666696369656e74604082015260600190565b6020808252601190820152702ab730b13632903a37903932b33ab7321760791b604082015260600190565b6020808252601b908201527f4e6f20696e766573746d656e747320666f7220616464726573732e0000000000604082015260600190565b6020808252603a908201527f416464726573733a20756e61626c6520746f2073656e642076616c75652c207260408201527f6563697069656e74206d61792068617665207265766572746564000000000000606082015260800190565b6020808252601d908201527f416464726573733a20696e73756666696369656e742062616c616e6365000000604082015260600190565b6020808252601a908201527f43726f776466756e64696e672069732066696e616c697a65642e000000000000604082015260600190565b6020808252601590820152742737903932bbb0b932399030bb30b4b630b136329760591b604082015260600190565b6020808252601690820152752737903932bbb0b932103337b91030b2323932b9b99760511b604082015260600190565b6020808252601390820152722ab730b13632903a37903bb4ba34323930bb9760691b604082015260600190565b60208082526012908201527120b63932b0b23c903bb4ba34323930bbb71760711b604082015260600190565b6020808252601f908201527f5265656e7472616e637947756172643a207265656e7472616e742063616c6c00604082015260600190565b6020808252601f908201527f496e766573746d656e74732073686f756c6420626520706f7369746976652e00604082015260600190565b6020808252602f908201527f416363657373436f6e74726f6c3a2063616e206f6e6c792072656e6f756e636560408201526e103937b632b9903337b91039b2b63360891b606082015260800190565b60008219821115611502576115026115a4565b500190565b60008261152257634e487b7160e01b81526012600452602481fd5b500490565b6000816000190483118215151615611541576115416115a4565b500290565b600082821015611558576115586115a4565b500390565b60005b83811015611578578181015183820152602001611560565b83811115611587576000848401525b50505050565b60008161159c5761159c6115a4565b506000190190565b634e487b7160e01b600052601160045260246000fdfea2646970667358221220a92e1bbad45fef2c50a9a2578a86e7ebca7906f4797c06d3653cfb20f4da7d2164736f6c63430008000033a2646970667358221220a272dc9d2cb6526a9f239145a0bf57d9e7b5eacf33d0689daccacfd3db37fbae64736f6c63430008000033",
  "devdoc": {
    "details": "Handles deploying new instances of the crowdfunding contract",
    "events": {
      "CrowdfundingDeployed(uint256,uint256,address,address,uint256,address)": {
        "details": "Event representing a deployed crowdfunding instance",
        "params": {
          "beneficiary": "The crowdfunding beneficiary wallet address",
          "devTeamWallet": "The development team wallet address",
          "token": "The contract token",
          "weiMinObjective": "The minimum objective of the crowdfunding in wei",
          "weiObjective": "The objective of the crowdfunding in wei",
          "weiTokenPrice": "The token price of a Star Token in wei for the deployed contract"
        }
      }
    },
    "kind": "dev",
    "methods": {
      "deployNewCrowdfunding(uint256,uint256,address,uint256,address)": {
        "details": "Deploy a new crowdfunding instance",
        "params": {
          "beneficiary": "The crowdfunding beneficiary wallet address",
          "devTeamWallet": "The development team wallet address",
          "weiMinObjective": "The minimum objective of the crowdfunding in wei",
          "weiObjective": "The objective of the crowdfunding in wei",
          "weiTokenPrice": "The token price of a Star Token in wei for the deployed contract"
        }
      },
      "owner()": {
        "details": "Returns the address of the current owner."
      },
      "renounceOwnership()": {
        "details": "Leaves the contract without owner. It will not be possible to call `onlyOwner` functions anymore. Can only be called by the current owner. NOTE: Renouncing ownership will leave the contract without an owner, thereby removing any functionality that is only available to the owner."
      },
      "transferOwnership(address)": {
        "details": "Transfers ownership of the contract to a new account (`newOwner`). Can only be called by the current owner."
      }
    },
    "stateVariables": {
      "instances": {
        "details": "The deployed instances of the crowdfunding token "
      },
      "token": {
        "details": "The contract token "
      }
    },
    "version": 1
  },
  "userdoc": {
    "kind": "user",
    "methods": {},
    "version": 1
  },
  "storageLayout": {
    "storage": [
      {
        "astId": 387,
        "contract": "contracts/CrowdfundingDeployer.sol:CrowdfundingDeployer",
        "label": "_owner",
        "offset": 0,
        "slot": "0",
        "type": "t_address"
      },
      {
        "astId": 494,
        "contract": "contracts/CrowdfundingDeployer.sol:CrowdfundingDeployer",
        "label": "_status",
        "offset": 0,
        "slot": "1",
        "type": "t_uint256"
      },
      {
        "astId": 2199,
        "contract": "contracts/CrowdfundingDeployer.sol:CrowdfundingDeployer",
        "label": "instances",
        "offset": 0,
        "slot": "2",
        "type": "t_mapping(t_address,t_array(t_address)dyn_storage)"
      }
    ],
    "types": {
      "t_address": {
        "encoding": "inplace",
        "label": "address",
        "numberOfBytes": "20"
      },
      "t_array(t_address)dyn_storage": {
        "base": "t_address",
        "encoding": "dynamic_array",
        "label": "address[]",
        "numberOfBytes": "32"
      },
      "t_mapping(t_address,t_array(t_address)dyn_storage)": {
        "encoding": "mapping",
        "key": "t_address",
        "label": "mapping(address => address[])",
        "numberOfBytes": "32",
        "value": "t_array(t_address)dyn_storage"
      },
      "t_uint256": {
        "encoding": "inplace",
        "label": "uint256",
        "numberOfBytes": "32"
      }
    }
  }
}