{
  "address": "0x5FbDB2315678afecb367f032d93F642f64180aa3",
  "abi": [
    {
      "inputs": [
        {
          "internalType": "address",
          "name": "owner",
          "type": "address"
        },
        {
          "internalType": "uint256",
          "name": "initialSupply",
          "type": "uint256"
        }
      ],
      "stateMutability": "nonpayable",
      "type": "constructor"
    },
    {
      "anonymous": false,
      "inputs": [
        {
          "indexed": true,
          "internalType": "address",
          "name": "owner",
          "type": "address"
        },
        {
          "indexed": true,
          "internalType": "address",
          "name": "spender",
          "type": "address"
        },
        {
          "indexed": false,
          "internalType": "uint256",
          "name": "value",
          "type": "uint256"
        }
      ],
      "name": "Approval",
      "type": "event"
    },
    {
      "anonymous": false,
      "inputs": [
        {
          "indexed": true,
          "internalType": "address",
          "name": "from",
          "type": "address"
        },
        {
          "indexed": false,
          "internalType": "uint256",
          "name": "amount",
          "type": "uint256"
        }
      ],
      "name": "Burned",
      "type": "event"
    },
    {
      "anonymous": false,
      "inputs": [
        {
          "indexed": true,
          "internalType": "address",
          "name": "to",
          "type": "address"
        },
        {
          "indexed": false,
          "internalType": "uint256",
          "name": "amount",
          "type": "uint256"
        }
      ],
      "name": "Minted",
      "type": "event"
    },
    {
      "anonymous": false,
      "inputs": [
        {
          "indexed": true,
          "internalType": "bytes32",
          "name": "role",
          "type": "bytes32"
        },
        {
          "indexed": true,
          "internalType": "bytes32",
          "name": "previousAdminRole",
          "type": "bytes32"
        },
        {
          "indexed": true,
          "internalType": "bytes32",
          "name": "newAdminRole",
          "type": "bytes32"
        }
      ],
      "name": "RoleAdminChanged",
      "type": "event"
    },
    {
      "anonymous": false,
      "inputs": [
        {
          "indexed": true,
          "internalType": "bytes32",
          "name": "role",
          "type": "bytes32"
        },
        {
          "indexed": true,
          "internalType": "address",
          "name": "account",
          "type": "address"
        },
        {
          "indexed": true,
          "internalType": "address",
          "name": "sender",
          "type": "address"
        }
      ],
      "name": "RoleGranted",
      "type": "event"
    },
    {
      "anonymous": false,
      "inputs": [
        {
          "indexed": true,
          "internalType": "bytes32",
          "name": "role",
          "type": "bytes32"
        },
        {
          "indexed": true,
          "internalType": "address",
          "name": "account",
          "type": "address"
        },
        {
          "indexed": true,
          "internalType": "address",
          "name": "sender",
          "type": "address"
        }
      ],
      "name": "RoleRevoked",
      "type": "event"
    },
    {
      "anonymous": false,
      "inputs": [
        {
          "indexed": true,
          "internalType": "address",
          "name": "from",
          "type": "address"
        },
        {
          "indexed": true,
          "internalType": "address",
          "name": "to",
          "type": "address"
        },
        {
          "indexed": false,
          "internalType": "uint256",
          "name": "value",
          "type": "uint256"
        }
      ],
      "name": "Transfer",
      "type": "event"
    },
    {
      "inputs": [],
      "name": "BURNER_ROLE",
      "outputs": [
        {
          "internalType": "bytes32",
          "name": "",
          "type": "bytes32"
        }
      ],
      "stateMutability": "view",
      "type": "function"
    },
    {
      "inputs": [],
      "name": "DEFAULT_ADMIN_ROLE",
      "outputs": [
        {
          "internalType": "bytes32",
          "name": "",
          "type": "bytes32"
        }
      ],
      "stateMutability": "view",
      "type": "function"
    },
    {
      "inputs": [],
      "name": "MINTER_ROLE",
      "outputs": [
        {
          "internalType": "bytes32",
          "name": "",
          "type": "bytes32"
        }
      ],
      "stateMutability": "view",
      "type": "function"
    },
    {
      "inputs": [
        {
          "internalType": "address",
          "name": "owner",
          "type": "address"
        },
        {
          "internalType": "address",
          "name": "spender",
          "type": "address"
        }
      ],
      "name": "allowance",
      "outputs": [
        {
          "internalType": "uint256",
          "name": "",
          "type": "uint256"
        }
      ],
      "stateMutability": "view",
      "type": "function"
    },
    {
      "inputs": [
        {
          "internalType": "address",
          "name": "spender",
          "type": "address"
        },
        {
          "internalType": "uint256",
          "name": "amount",
          "type": "uint256"
        }
      ],
      "name": "approve",
      "outputs": [
        {
          "internalType": "bool",
          "name": "",
          "type": "bool"
        }
      ],
      "stateMutability": "nonpayable",
      "type": "function"
    },
    {
      "inputs": [
        {
          "internalType": "address",
          "name": "account",
          "type": "address"
        }
      ],
      "name": "balanceOf",
      "outputs": [
        {
          "internalType": "uint256",
          "name": "",
          "type": "uint256"
        }
      ],
      "stateMutability": "view",
      "type": "function"
    },
    {
      "inputs": [
        {
          "internalType": "address",
          "name": "from",
          "type": "address"
        },
        {
          "internalType": "uint256",
          "name": "amount",
          "type": "uint256"
        }
      ],
      "name": "burn",
      "outputs": [],
      "stateMutability": "nonpayable",
      "type": "function"
    },
    {
      "inputs": [],
      "name": "decimals",
      "outputs": [
        {
          "internalType": "uint8",
          "name": "",
          "type": "uint8"
        }
      ],
      "stateMutability": "view",
      "type": "function"
    },
    {
      "inputs": [
        {
          "internalType": "address",
          "name": "spender",
          "type": "address"
        },
        {
          "internalType": "uint256",
          "name": "subtractedValue",
          "type": "uint256"
        }
      ],
      "name": "decreaseAllowance",
      "outputs": [
        {
          "internalType": "bool",
          "name": "",
          "type": "bool"
        }
      ],
      "stateMutability": "nonpayable",
      "type": "function"
    },
    {
      "inputs": [
        {
          "internalType": "bytes32",
          "name": "role",
          "type": "bytes32"
        }
      ],
      "name": "getRoleAdmin",
      "outputs": [
        {
          "internalType": "bytes32",
          "name": "",
          "type": "bytes32"
        }
      ],
      "stateMutability": "view",
      "type": "function"
    },
    {
      "inputs": [
        {
          "internalType": "bytes32",
          "name": "role",
          "type": "bytes32"
        },
        {
          "internalType": "address",
          "name": "account",
          "type": "address"
        }
      ],
      "name": "grantRole",
      "outputs": [],
      "stateMutability": "nonpayable",
      "type": "function"
    },
    {
      "inputs": [
        {
          "internalType": "bytes32",
          "name": "role",
          "type": "bytes32"
        },
        {
          "internalType": "address",
          "name": "account",
          "type": "address"
        }
      ],
      "name": "hasRole",
      "outputs": [
        {
          "internalType": "bool",
          "name": "",
          "type": "bool"
        }
      ],
      "stateMutability": "view",
      "type": "function"
    },
    {
      "inputs": [
        {
          "internalType": "address",
          "name": "spender",
          "type": "address"
        },
        {
          "internalType": "uint256",
          "name": "addedValue",
          "type": "uint256"
        }
      ],
      "name": "increaseAllowance",
      "outputs": [
        {
          "internalType": "bool",
          "name": "",
          "type": "bool"
        }
      ],
      "stateMutability": "nonpayable",
      "type": "function"
    },
    {
      "inputs": [
        {
          "internalType": "address",
          "name": "to",
          "type": "address"
        },
        {
          "internalType": "uint256",
          "name": "amount",
          "type": "uint256"
        }
      ],
      "name": "mint",
      "outputs": [],
      "stateMutability": "nonpayable",
      "type": "function"
    },
    {
      "inputs": [],
      "name": "name",
      "outputs": [
        {
          "internalType": "string",
          "name": "",
          "type": "string"
        }
      ],
      "stateMutability": "view",
      "type": "function"
    },
    {
      "inputs": [
        {
          "internalType": "bytes32",
          "name": "role",
          "type": "bytes32"
        },
        {
          "internalType": "address",
          "name": "account",
          "type": "address"
        }
      ],
      "name": "renounceRole",
      "outputs": [],
      "stateMutability": "nonpayable",
      "type": "function"
    },
    {
      "inputs": [
        {
          "internalType": "bytes32",
          "name": "role",
          "type": "bytes32"
        },
        {
          "internalType": "address",
          "name": "account",
          "type": "address"
        }
      ],
      "name": "revokeRole",
      "outputs": [],
      "stateMutability": "nonpayable",
      "type": "function"
    },
    {
      "inputs": [
        {
          "internalType": "bytes4",
          "name": "interfaceId",
          "type": "bytes4"
        }
      ],
      "name": "supportsInterface",
      "outputs": [
        {
          "internalType": "bool",
          "name": "",
          "type": "bool"
        }
      ],
      "stateMutability": "view",
      "type": "function"
    },
    {
      "inputs": [],
      "name": "symbol",
      "outputs": [
        {
          "internalType": "string",
          "name": "",
          "type": "string"
        }
      ],
      "stateMutability": "view",
      "type": "function"
    },
    {
      "inputs": [],
      "name": "totalSupply",
      "outputs": [
        {
          "internalType": "uint256",
          "name": "",
          "type": "uint256"
        }
      ],
      "stateMutability": "view",
      "type": "function"
    },
    {
      "inputs": [
        {
          "internalType": "address",
          "name": "recipient",
          "type": "address"
        },
        {
          "internalType": "uint256",
          "name": "amount",
          "type": "uint256"
        }
      ],
      "name": "transfer",
      "outputs": [
        {
          "internalType": "bool",
          "name": "",
          "type": "bool"
        }
      ],
      "stateMutability": "nonpayable",
      "type": "function"
    },
    {
      "inputs": [
        {
          "internalType": "address",
          "name": "sender",
          "type": "address"
        },
        {
          "internalType": "address",
          "name": "recipient",
          "type": "address"
        },
        {
          "internalType": "uint256",
          "name": "amount",
          "type": "uint256"
        }
      ],
      "name": "transferFrom",
      "outputs": [
        {
          "internalType": "bool",
          "name": "",
          "type": "bool"
        }
      ],
      "stateMutability": "nonpayable",
      "type": "function"
    }
  ],
  "transactionHash": "0x00087598468604f1ce55e9b331482405e198086b4a6d7de146975c455fced0ff",
  "args": [
    "0xf39Fd6e51aad88F6F4ce6aB8827279cffFb92266",
    "100000000000000000000"
  ],
  "solcInputHash": "814dbd40af2d5ffdb74edff265b7cd76",
  "bytecode": "0x60806040523480156200001157600080fd5b506040516200189d3803806200189d833981016040819052620000349162000311565b604080518082018252600981526829ba30b92a37b5b2b760b91b60208083019182528351808501909452600484526329aa20a960e11b90840152815191929162000081916003916200026b565b508051620000979060049060208401906200026b565b50620000a991506000905033620000bd565b620000b58282620000cd565b5050620003ed565b620000c98282620001ab565b5050565b6001600160a01b038216620000ff5760405162461bcd60e51b8152600401620000f6906200034b565b60405180910390fd5b6200010d6000838362000237565b80600260008282546200012191906200038b565b90915550506001600160a01b03821660009081526020819052604081208054839290620001509084906200038b565b90915550506040516001600160a01b038316906000907fddf252ad1be2c89b69c2b068fc378daa952ba7f163c4a11628f55a4df523b3ef906200019590859062000382565b60405180910390a3620000c96000838362000237565b620001b782826200023c565b620000c95760008281526005602090815260408083206001600160a01b03851684529091529020805460ff19166001179055620001f362000267565b6001600160a01b0316816001600160a01b0316837f2f8788117e7eff1d82e926ec794901d17c78024a50270940304540a733656f0d60405160405180910390a45050565b505050565b60009182526005602090815260408084206001600160a01b0393909316845291905290205460ff1690565b3390565b8280546200027990620003b0565b90600052602060002090601f0160209004810192826200029d5760008555620002e8565b82601f10620002b857805160ff1916838001178555620002e8565b82800160010185558215620002e8579182015b82811115620002e8578251825591602001919060010190620002cb565b50620002f6929150620002fa565b5090565b5b80821115620002f65760008155600101620002fb565b6000806040838503121562000324578182fd5b82516001600160a01b03811681146200033b578283fd5b6020939093015192949293505050565b6020808252601f908201527f45524332303a206d696e7420746f20746865207a65726f206164647265737300604082015260600190565b90815260200190565b60008219821115620003ab57634e487b7160e01b81526011600452602481fd5b500190565b600281046001821680620003c557607f821691505b60208210811415620003e757634e487b7160e01b600052602260045260246000fd5b50919050565b6114a080620003fd6000396000f3fe608060405234801561001057600080fd5b50600436106101425760003560e01c806340c10f19116100b8578063a217fddf1161007c578063a217fddf1461027f578063a457c2d714610287578063a9059cbb1461029a578063d5391393146102ad578063d547741f146102b5578063dd62ed3e146102c857610142565b806340c10f191461022b57806370a082311461023e57806391d148541461025157806395d89b41146102645780639dc29fac1461026c57610142565b8063248a9ca31161010a578063248a9ca3146101c0578063282c51f3146101d35780632f2ff15d146101db578063313ce567146101f057806336568abe14610205578063395093511461021857610142565b806301ffc9a71461014757806306fdde0314610170578063095ea7b31461018557806318160ddd1461019857806323b872dd146101ad575b600080fd5b61015a610155366004610f77565b6102db565b6040516101679190611014565b60405180910390f35b610178610308565b6040516101679190611028565b61015a610193366004610f14565b61039a565b6101a06103b7565b604051610167919061101f565b61015a6101bb366004610ed9565b6103bd565b6101a06101ce366004610f3d565b610456565b6101a061046b565b6101ee6101e9366004610f55565b61048f565b005b6101f86104b8565b604051610167919061137a565b6101ee610213366004610f55565b6104bd565b61015a610226366004610f14565b610503565b6101ee610239366004610f14565b610557565b6101a061024c366004610e8d565b6105d4565b61015a61025f366004610f55565b6105ef565b61017861061a565b6101ee61027a366004610f14565b610629565b6101a0610699565b61015a610295366004610f14565b61069e565b61015a6102a8366004610f14565b610717565b6101a061072b565b6101ee6102c3366004610f55565b61074f565b6101a06102d6366004610ea7565b61076e565b60006001600160e01b03198216637965db0b60e01b1480610300575061030082610799565b90505b919050565b60606003805461031790611419565b80601f016020809104026020016040519081016040528092919081815260200182805461034390611419565b80156103905780601f1061036557610100808354040283529160200191610390565b820191906000526020600020905b81548152906001019060200180831161037357829003601f168201915b5050505050905090565b60006103ae6103a76107b2565b84846107b6565b50600192915050565b60025490565b60006103ca84848461086a565b6001600160a01b0384166000908152600160205260408120816103eb6107b2565b6001600160a01b03166001600160a01b03168152602001908152602001600020549050828110156104375760405162461bcd60e51b815260040161042e9061119d565b60405180910390fd5b61044b856104436107b2565b8584036107b6565b506001949350505050565b60009081526005602052604090206001015490565b7f3c11d16cbaffd01df69ce1c404f6340ee057498f5f00246190ea54220576a84881565b61049882610456565b6104a9816104a46107b2565b610994565b6104b383836109f8565b505050565b601290565b6104c56107b2565b6001600160a01b0316816001600160a01b0316146104f55760405162461bcd60e51b815260040161042e906112f4565b6104ff8282610a7f565b5050565b60006103ae6105106107b2565b84846001600061051e6107b2565b6001600160a01b03908116825260208083019390935260409182016000908120918b16815292529020546105529190611388565b6107b6565b7f9f2df0fed2c77648de5860a4cc508cd0818c85b8b8a1ab4ceeef8d981c8956a6610584816104a46107b2565b61058e8383610b04565b826001600160a01b03167f30385c845b448a36257a6a1716e6ad2e1bc2cbe333cde1e69fe849ad6511adfe836040516105c7919061101f565b60405180910390a2505050565b6001600160a01b031660009081526020819052604090205490565b60009182526005602090815260408084206001600160a01b0393909316845291905290205460ff1690565b60606004805461031790611419565b7f3c11d16cbaffd01df69ce1c404f6340ee057498f5f00246190ea54220576a848610656816104a46107b2565b6106608383610bcc565b826001600160a01b03167f696de425f79f4a40bc6d2122ca50507f0efbeabbff86a84871b7196ab8ea8df7836040516105c7919061101f565b600081565b600080600160006106ad6107b2565b6001600160a01b03908116825260208083019390935260409182016000908120918816815292529020549050828110156106f95760405162461bcd60e51b815260040161042e906112af565b61070d6107046107b2565b858584036107b6565b5060019392505050565b60006103ae6107246107b2565b848461086a565b7f9f2df0fed2c77648de5860a4cc508cd0818c85b8b8a1ab4ceeef8d981c8956a681565b61075882610456565b610764816104a46107b2565b6104b38383610a7f565b6001600160a01b03918216600090815260016020908152604080832093909416825291909152205490565b6001600160e01b031981166301ffc9a760e01b14919050565b3390565b6001600160a01b0383166107dc5760405162461bcd60e51b815260040161042e9061126b565b6001600160a01b0382166108025760405162461bcd60e51b815260040161042e90611115565b6001600160a01b0380841660008181526001602090815260408083209487168084529490915290819020849055517f8c5be1e5ebec7d5bd14f71427d1e84f3dd0314c0f7b2291e5b200ac8c7c3b9259061085d90859061101f565b60405180910390a3505050565b6001600160a01b0383166108905760405162461bcd60e51b815260040161042e90611226565b6001600160a01b0382166108b65760405162461bcd60e51b815260040161042e90611090565b6108c18383836104b3565b6001600160a01b038316600090815260208190526040902054818110156108fa5760405162461bcd60e51b815260040161042e90611157565b6001600160a01b03808516600090815260208190526040808220858503905591851681529081208054849290610931908490611388565b92505081905550826001600160a01b0316846001600160a01b03167fddf252ad1be2c89b69c2b068fc378daa952ba7f163c4a11628f55a4df523b3ef8460405161097b919061101f565b60405180910390a361098e8484846104b3565b50505050565b61099e82826105ef565b6104ff576109b6816001600160a01b03166014610cbd565b6109c1836020610cbd565b6040516020016109d2929190610f9f565b60408051601f198184030181529082905262461bcd60e51b825261042e91600401611028565b610a0282826105ef565b6104ff5760008281526005602090815260408083206001600160a01b03851684529091529020805460ff19166001179055610a3b6107b2565b6001600160a01b0316816001600160a01b0316837f2f8788117e7eff1d82e926ec794901d17c78024a50270940304540a733656f0d60405160405180910390a45050565b610a8982826105ef565b156104ff5760008281526005602090815260408083206001600160a01b03851684529091529020805460ff19169055610ac06107b2565b6001600160a01b0316816001600160a01b0316837ff6391f5c32d9c69d2a47ea670b442974b53935d1edc7fd64eb21e047a839171b60405160405180910390a45050565b6001600160a01b038216610b2a5760405162461bcd60e51b815260040161042e90611343565b610b36600083836104b3565b8060026000828254610b489190611388565b90915550506001600160a01b03821660009081526020819052604081208054839290610b75908490611388565b90915550506040516001600160a01b038316906000907fddf252ad1be2c89b69c2b068fc378daa952ba7f163c4a11628f55a4df523b3ef90610bb890859061101f565b60405180910390a36104ff600083836104b3565b6001600160a01b038216610bf25760405162461bcd60e51b815260040161042e906111e5565b610bfe826000836104b3565b6001600160a01b03821660009081526020819052604090205481811015610c375760405162461bcd60e51b815260040161042e906110d3565b6001600160a01b0383166000908152602081905260408120838303905560028054849290610c669084906113bf565b90915550506040516000906001600160a01b038516907fddf252ad1be2c89b69c2b068fc378daa952ba7f163c4a11628f55a4df523b3ef90610ca990869061101f565b60405180910390a36104b3836000846104b3565b60606000610ccc8360026113a0565b610cd7906002611388565b67ffffffffffffffff811115610cfd57634e487b7160e01b600052604160045260246000fd5b6040519080825280601f01601f191660200182016040528015610d27576020820181803683370190505b509050600360fc1b81600081518110610d5057634e487b7160e01b600052603260045260246000fd5b60200101906001600160f81b031916908160001a905350600f60fb1b81600181518110610d8d57634e487b7160e01b600052603260045260246000fd5b60200101906001600160f81b031916908160001a9053506000610db18460026113a0565b610dbc906001611388565b90505b6001811115610e50576f181899199a1a9b1b9c1cb0b131b232b360811b85600f1660108110610dfe57634e487b7160e01b600052603260045260246000fd5b1a60f81b828281518110610e2257634e487b7160e01b600052603260045260246000fd5b60200101906001600160f81b031916908160001a90535060049490941c93610e4981611402565b9050610dbf565b508315610e6f5760405162461bcd60e51b815260040161042e9061105b565b9392505050565b80356001600160a01b038116811461030357600080fd5b600060208284031215610e9e578081fd5b610e6f82610e76565b60008060408385031215610eb9578081fd5b610ec283610e76565b9150610ed060208401610e76565b90509250929050565b600080600060608486031215610eed578081fd5b610ef684610e76565b9250610f0460208501610e76565b9150604084013590509250925092565b60008060408385031215610f26578182fd5b610f2f83610e76565b946020939093013593505050565b600060208284031215610f4e578081fd5b5035919050565b60008060408385031215610f67578182fd5b82359150610ed060208401610e76565b600060208284031215610f88578081fd5b81356001600160e01b031981168114610e6f578182fd5b60007f416363657373436f6e74726f6c3a206163636f756e742000000000000000000082528351610fd78160178501602088016113d6565b7001034b99036b4b9b9b4b733903937b6329607d1b60179184019182015283516110088160288401602088016113d6565b01602801949350505050565b901515815260200190565b90815260200190565b60006020825282518060208401526110478160408501602087016113d6565b601f01601f19169190910160400192915050565b6020808252818101527f537472696e67733a20686578206c656e67746820696e73756666696369656e74604082015260600190565b60208082526023908201527f45524332303a207472616e7366657220746f20746865207a65726f206164647260408201526265737360e81b606082015260800190565b60208082526022908201527f45524332303a206275726e20616d6f756e7420657863656564732062616c616e604082015261636560f01b606082015260800190565b60208082526022908201527f45524332303a20617070726f766520746f20746865207a65726f206164647265604082015261737360f01b606082015260800190565b60208082526026908201527f45524332303a207472616e7366657220616d6f756e7420657863656564732062604082015265616c616e636560d01b606082015260800190565b60208082526028908201527f45524332303a207472616e7366657220616d6f756e74206578636565647320616040820152676c6c6f77616e636560c01b606082015260800190565b60208082526021908201527f45524332303a206275726e2066726f6d20746865207a65726f206164647265736040820152607360f81b606082015260800190565b60208082526025908201527f45524332303a207472616e736665722066726f6d20746865207a65726f206164604082015264647265737360d81b606082015260800190565b60208082526024908201527f45524332303a20617070726f76652066726f6d20746865207a65726f206164646040820152637265737360e01b606082015260800190565b60208082526025908201527f45524332303a2064656372656173656420616c6c6f77616e63652062656c6f77604082015264207a65726f60d81b606082015260800190565b6020808252602f908201527f416363657373436f6e74726f6c3a2063616e206f6e6c792072656e6f756e636560408201526e103937b632b9903337b91039b2b63360891b606082015260800190565b6020808252601f908201527f45524332303a206d696e7420746f20746865207a65726f206164647265737300604082015260600190565b60ff91909116815260200190565b6000821982111561139b5761139b611454565b500190565b60008160001904831182151516156113ba576113ba611454565b500290565b6000828210156113d1576113d1611454565b500390565b60005b838110156113f15781810151838201526020016113d9565b8381111561098e5750506000910152565b60008161141157611411611454565b506000190190565b60028104600182168061142d57607f821691505b6020821081141561144e57634e487b7160e01b600052602260045260246000fd5b50919050565b634e487b7160e01b600052601160045260246000fdfea26469706673582212207804fa9ba8809a86705be58e924749cd0db587e9639341d68031cf2733bd55ab64736f6c63430008000033",
  "devdoc": {
    "details": "Implementation of the Star Token, a ERC20 token which is minted as reward for student crowdfundings.*",
    "events": {
      "Burned(address,uint256)": {
        "details": "An event that carry information about a token burn",
        "params": {
          "amount": "The amount of tokens burn",
          "from": "The wallet from which the tokens were burn"
        }
      },
      "Minted(address,uint256)": {
        "details": "An event that carry information about a token mintage",
        "params": {
          "amount": "The amount of tokens minted",
          "to": "The wallet to where the minted tokens was allocated"
        }
      }
    },
    "kind": "dev",
    "methods": {
      "allowance(address,address)": {
        "details": "See {IERC20-allowance}."
      },
      "approve(address,uint256)": {
        "details": "See {IERC20-approve}. Requirements: - `spender` cannot be the zero address."
      },
      "balanceOf(address)": {
        "details": "See {IERC20-balanceOf}."
      },
      "burn(address,uint256)": {
        "details": "Burn coins from a given wallet"
      },
      "decimals()": {
        "details": "Returns the number of decimals used to get its user representation. For example, if `decimals` equals `2`, a balance of `505` tokens should be displayed to a user as `5.05` (`505 / 10 ** 2`). Tokens usually opt for a value of 18, imitating the relationship between Ether and Wei. This is the value {ERC20} uses, unless this function is overridden; NOTE: This information is only used for _display_ purposes: it in no way affects any of the arithmetic of the contract, including {IERC20-balanceOf} and {IERC20-transfer}."
      },
      "decreaseAllowance(address,uint256)": {
        "details": "Atomically decreases the allowance granted to `spender` by the caller. This is an alternative to {approve} that can be used as a mitigation for problems described in {IERC20-approve}. Emits an {Approval} event indicating the updated allowance. Requirements: - `spender` cannot be the zero address. - `spender` must have allowance for the caller of at least `subtractedValue`."
      },
      "getRoleAdmin(bytes32)": {
        "details": "Returns the admin role that controls `role`. See {grantRole} and {revokeRole}. To change a role's admin, use {_setRoleAdmin}."
      },
      "grantRole(bytes32,address)": {
        "details": "Grants `role` to `account`. If `account` had not been already granted `role`, emits a {RoleGranted} event. Requirements: - the caller must have ``role``'s admin role."
      },
      "hasRole(bytes32,address)": {
        "details": "Returns `true` if `account` has been granted `role`."
      },
      "increaseAllowance(address,uint256)": {
        "details": "Atomically increases the allowance granted to `spender` by the caller. This is an alternative to {approve} that can be used as a mitigation for problems described in {IERC20-approve}. Emits an {Approval} event indicating the updated allowance. Requirements: - `spender` cannot be the zero address."
      },
      "mint(address,uint256)": {
        "details": "Mint coins and send it to a given wallet"
      },
      "name()": {
        "details": "Returns the name of the token."
      },
      "renounceRole(bytes32,address)": {
        "details": "Revokes `role` from the calling account. Roles are often managed via {grantRole} and {revokeRole}: this function's purpose is to provide a mechanism for accounts to lose their privileges if they are compromised (such as when a trusted device is misplaced). If the calling account had been granted `role`, emits a {RoleRevoked} event. Requirements: - the caller must be `account`."
      },
      "revokeRole(bytes32,address)": {
        "details": "Revokes `role` from `account`. If `account` had been granted `role`, emits a {RoleRevoked} event. Requirements: - the caller must have ``role``'s admin role."
      },
      "supportsInterface(bytes4)": {
        "details": "See {IERC165-supportsInterface}."
      },
      "symbol()": {
        "details": "Returns the symbol of the token, usually a shorter version of the name."
      },
      "totalSupply()": {
        "details": "See {IERC20-totalSupply}."
      },
      "transfer(address,uint256)": {
        "details": "See {IERC20-transfer}. Requirements: - `recipient` cannot be the zero address. - the caller must have a balance of at least `amount`."
      },
      "transferFrom(address,address,uint256)": {
        "details": "See {IERC20-transferFrom}. Emits an {Approval} event indicating the updated allowance. This is not required by the EIP. See the note at the beginning of {ERC20}. Requirements: - `sender` and `recipient` cannot be the zero address. - `sender` must have a balance of at least `amount`. - the caller must have allowance for ``sender``'s tokens of at least `amount`."
      }
    },
    "title": "StarToken",
    "version": 1
  },
  "userdoc": {
    "kind": "user",
    "methods": {},
    "version": 1
  },
  "storageLayout": {
    "storage": [
      {
        "astId": 539,
        "contract": "contracts/StarToken.sol:StarToken",
        "label": "_balances",
        "offset": 0,
        "slot": "0",
        "type": "t_mapping(t_address,t_uint256)"
      },
      {
        "astId": 545,
        "contract": "contracts/StarToken.sol:StarToken",
        "label": "_allowances",
        "offset": 0,
        "slot": "1",
        "type": "t_mapping(t_address,t_mapping(t_address,t_uint256))"
      },
      {
        "astId": 547,
        "contract": "contracts/StarToken.sol:StarToken",
        "label": "_totalSupply",
        "offset": 0,
        "slot": "2",
        "type": "t_uint256"
      },
      {
        "astId": 549,
        "contract": "contracts/StarToken.sol:StarToken",
        "label": "_name",
        "offset": 0,
        "slot": "3",
        "type": "t_string_storage"
      },
      {
        "astId": 551,
        "contract": "contracts/StarToken.sol:StarToken",
        "label": "_symbol",
        "offset": 0,
        "slot": "4",
        "type": "t_string_storage"
      },
      {
        "astId": 24,
        "contract": "contracts/StarToken.sol:StarToken",
        "label": "_roles",
        "offset": 0,
        "slot": "5",
        "type": "t_mapping(t_bytes32,t_struct(RoleData)19_storage)"
      }
    ],
    "types": {
      "t_address": {
        "encoding": "inplace",
        "label": "address",
        "numberOfBytes": "20"
      },
      "t_bool": {
        "encoding": "inplace",
        "label": "bool",
        "numberOfBytes": "1"
      },
      "t_bytes32": {
        "encoding": "inplace",
        "label": "bytes32",
        "numberOfBytes": "32"
      },
      "t_mapping(t_address,t_bool)": {
        "encoding": "mapping",
        "key": "t_address",
        "label": "mapping(address => bool)",
        "numberOfBytes": "32",
        "value": "t_bool"
      },
      "t_mapping(t_address,t_mapping(t_address,t_uint256))": {
        "encoding": "mapping",
        "key": "t_address",
        "label": "mapping(address => mapping(address => uint256))",
        "numberOfBytes": "32",
        "value": "t_mapping(t_address,t_uint256)"
      },
      "t_mapping(t_address,t_uint256)": {
        "encoding": "mapping",
        "key": "t_address",
        "label": "mapping(address => uint256)",
        "numberOfBytes": "32",
        "value": "t_uint256"
      },
      "t_mapping(t_bytes32,t_struct(RoleData)19_storage)": {
        "encoding": "mapping",
        "key": "t_bytes32",
        "label": "mapping(bytes32 => struct AccessControl.RoleData)",
        "numberOfBytes": "32",
        "value": "t_struct(RoleData)19_storage"
      },
      "t_string_storage": {
        "encoding": "bytes",
        "label": "string",
        "numberOfBytes": "32"
      },
      "t_struct(RoleData)19_storage": {
        "encoding": "inplace",
        "label": "struct AccessControl.RoleData",
        "members": [
          {
            "astId": 16,
            "contract": "contracts/StarToken.sol:StarToken",
            "label": "members",
            "offset": 0,
            "slot": "0",
            "type": "t_mapping(t_address,t_bool)"
          },
          {
            "astId": 18,
            "contract": "contracts/StarToken.sol:StarToken",
            "label": "adminRole",
            "offset": 0,
            "slot": "1",
            "type": "t_bytes32"
          }
        ],
        "numberOfBytes": "64"
      },
      "t_uint256": {
        "encoding": "inplace",
        "label": "uint256",
        "numberOfBytes": "32"
      }
    }
  }
}